:030000000201FA00
:0C01FA00787FE4F6D8FD758126020241F2
:1002E100BBB6D3ADC0B4B5BDBBA5C1AACDF8BDBB2E
:1002F100CDA800D0A1B3B5B7C5D0D000CFB5CDB38F
:10030100D2D1C7D0BBBBD6C1C8D5BCE4C4A3CABD7A
:1003110000CFB5CDB3D2D1C7D0BBBBD6C1D2B9BC4A
:10032100E4C4A3CABD00FD000001003F065B4F66A7
:050331006D7D077F6FE8
:1003A200011A010A103F065B4F666D7D077F6F01E0
:1003B2000B00020E06A4010A00011C00011B000230
:0903C2000C0000C1010208000159
:0C04AF00E51AC454F004FD7F48020388E5
:06045200D2967F057E003A
:10045800D3EF9400EE9400400C0000000000EF1F62
:0604680070EE1E80EB2285
:0A04BB00D296D297120454C2972281
:10046E007D01120452C296309709EDD39464500365
:08047E000D80F4120454C29633
:010486002253
:0A04C500D296C297120454D2972277
:0203F200AD0755
:1003F400C2967F017E00120458E4FCED25E0FD92D4
:0F04040097C296120454120452C2960CBC08EC14
:0104130022C6
:1003780090032CE493FD7F68120388E493FD7F6A61
:10038800AB05AD071204BBAF051203F212046EAF42
:0A039800031203F212046E0204C502
:10041400E4FDFCE4FBFAC3EB9FEA9E50070BBB0030
:0F042400010A80F20DBD00010CED64554C70E42F
:0104330022A6
:100434007FA512044A7F0112044A7F0A12044A7FEC
:060444000C12044A7FDDEA
:08044A002000FDD2008F9B226F
:06016D008B238A24892582
:10017300E4FFFEFDF526AB23AA24A925AC2605261C
:100183008C8275830012000E70EC1526E4FFBF0409
:100193000AE50B33333354F8FD8010BF0207E5261D
:1001A3002403FD8006EF90032793FDED62062000F4
:1001B300FDD2008D850FBF05D5E4FFEFC395265013
:1001C30028AB23AA24A9258F8275830012000E620F
:1001D300062000FDD200AB23AA24A9258F827583B4
:1001E3000012000EF5850F80D22000FDD2008E850F
:0701F3007F0A7E00020414E4
:10033600E4F593F594F591F592F595F596F5B17585
:10034600B2C0F5B3F5B4F5C9F5CA5389F0438901CE
:10035600F58AF58CD28CD2A9759A10758410538EB5
:10036600FB75D7E875D6FF438E10C20075AF11D264
:02037600AF22B4
:10049E00C374FF9FFF74FF9EC28C8F8AF58CD28C23
:0104AE00222B
:1003CC00E50A64027014E51BD39400400D12037807
:1003DC00E51B75F00A84E5F08004120378E493FDC4
:0603EC007F6C1203882261
:10009600E4F521F5221203361204AF7FC87E001262
:1000A60004141204347BFF7A0279E112016D120402
:1000B600AF30012BC3E50D94FAE50C94004020C245
:1000C60001E4F50CF50D7FA112044A7F01120445E7
:1000D6007BFF7A0279F412016DE4F51B851C0A2078
:1000E600B7287F0A7E0012041420B71EC201E4F569
:1000F6001BF50AF51C750E06750FA47BFF7A0279AF
:10010600FD12016D12043430B7FD20B6397F0A7E28
:100116000012041420B62FC201E4F51B750A0175FE
:100126001C01750E03750F2A7BFF7A0379121201E3
:100136006D7FA512044A7F0212044AE4FF12044AA4
:1001460012044530B6FD1203CC0522E522700205E5
:100156002164F47004E521640160030200B4F52112
:07016600F522B2CD0200B446
:03000B0002028668
:0B028600C0E0C0D075D000C006C0076B
:10029100E508702AE50924FE600E047021D2A5AF9D
:1002A1000FAE0E12049E8016C2A5C37420950FFFD7
:1002B100744E950EFE12049E75080075090005091D
:1002C100E5097002050864024508700B3001080554
:0702D1000DE50D7002050CA4
:0902D800D007D006D0D0D0E032EE
:0300430002004672
:09004600C0E0C0D075D000C00775
:10004F00E59A30E105539AFDC200E59A30E0275357
:10005F009AFEAF9BEFC39401401CEFD3940550164B
:10006F00E50A64026003850A1C8F1B750C00750D71
:06007F0000D201750A0227
:07008500D007D0D0D0E0321B
:03009300020487DD
:10048700C0E0E58430E1055384FDC200E58430E037
:07049700035384FED0E032A4
:10020600020096E493A3F8E493A34003F68001F278
:1002160008DFF48029E493A3F85407240CC8C333F9
:10022600C4540F4420C8834004F456800146F6DFC8
:10023600E4800B01020408102040809003A2E47EB3
:10024600019360BCA3FF543F30E509541FFEE493BD
:10025600A360010ECF54C025E060A840B8E493A384
:10026600FAE493A3F8E493A3C8C582C8CAC583CAAF
:10027600F0A3C8C582C8CAC583CADFE9DEE780BE67
:0103CB000031
:10000E00BB010CE58229F582E5833AF583E02250A7
:10001E0006E92582F8E622BBFE06E92582F8E222F1
:0D002E00E58229F582E5833AF583E493220B
:00000001FF
