:03000000020D34BA
:0C0D3400787FE4F6D8FD75813A020D7B53
:100EEC0041542B424D484B0D0A0041542B4244486F
:040EFC004B0D0A0090
:0D0F240041000000010B0A010C0A01080049
:040E3A007FE87E03CC
:100E3E00D3EF9400EE940040167D6EEDD3940074C3
:0F0E4E0080948040031D80F3EF1F70E41E80E14D
:010E5D002272
:080F7E008F993099FDC2992200
:080F86008F993099FDC29922F8
:100F1300538E7F5389F0758AA4758CFFD2A9C28C36
:010F230022AB
:100F0000759850438E01538EFB75D7E875D6FF4315
:030F10008E10221E
:0B0F7300C28CC292C293C294C29522AD
:0D0F4000D28C7509018F0BE4F50A8D0C228F
:0D0F4D00D28CE4F5098F0B750A018D0C2282
:0D0F5A00D28C7509018F0B750A018D0C22D8
:0C0F6700D28CE4F5098F0BF50A8D0C22EA
:100E5E007592FFE4F591F596F595F5B2F5B1F5CAF3
:100E6E00F5C9120F13120F00D2ACD2AF75A24022E9
:100B5C00120E5E120E3A7BFF7A0E79EC12086212BC
:100B6C000E3A7BFF7A0E79F6120862120E3A0523C2
:100B7C00E52370020522AE22FFE4FCFD7B507AC314
:100B8C00F9F8C3120C907006F522F523B2CC900044
:100B9C0000E064017008F07D507F50120F4090000F
:100BAC0000E064027004F0120F73900000E0640C1B
:020BBC0070BC0B
:100BBE00A29633F524A2B4E433F525A297E433F5D7
:100BCE0026AF247E00EF700DE5257009E526700531
:100BDE00120F738097EF64014E7012E52564017059
:100BEE000CE526640170067D4B7F4B806CE524700E
:100BFE0010E5256401700AE52670067D3C7F3C8079
:100C0E0058E524FB7A0064017010E5256401700A32
:100C1E00E52670067D467F37803FEB4A7012E5254C
:100C2E006401700CE526640170067D377F468029CD
:100C3E00E5246401700EE525700AE52670067D50E8
:100C4E007F2D8015E524FB7A007014E5257010E5E4
:100C5E00266401700A7D2D7F50120F40020B7AEB35
:100C6E0064014A6003020B7AE5256003020B7AE504
:0F0C7E002664016003020B7A7D3C7F3C120F401D
:030C8D00020B7ADD
:03000B00020DC023
:100DC000C0E0C0D075D000C006C0070508C3E50864
:100DD0009464748094804003750800AF097E00EF2E
:100DE000700FD293E508C3950B5004D2928002C2D3
:100DF00092EF64014E700FD292E508C3950B500438
:100E0000D2938002C293AF0A7E00EF700FD295E5B5
:100E100008C3950C5004D2948002C294EF64014E32
:100E2000700FD294E508C3950C5004D2958002C28D
:0A0E300095D007D006D0D0D0E032F4
:03002300020ED4F6
:100ED400C0E0C083C082309808C298900000E599B1
:080EE400F0D082D083D0E0328F
:0E0F3200E4F5C7F5C5F5C675C3FF75C4FF220B
:040E7E00AD07AC060A
:100E820075C78175C5018CC3EDF5C4C2AF75C65A6D
:0A0E920075C6A5AFC2D2AF020F3241
:100E9C00AB0775C78175C5028CC3EDF5C48BC2C297
:0C0EAC00AF75C65A75C6A5D2AF020F3252
:100EB800AD07AC0675C78175C5038CC3EDF5C4C213
:0C0EC800AF75C65A75C6A5D2AF020F3236
:100D4000020B5CE493A3F8E493A34003F68001F262
:100D500008DFF48029E493A3F85407240CC8C333B4
:100D6000C4540F4420C8834004F456800146F6DF83
:100D7000E4800B0102040810204080900F24E47EE0
:100D8000019360BCA3FF543F30E509541FFEE49378
:100D9000A360010ECF54C025E060A840B8E493A33F
:100DA000FAE493A3F8E493A3C8C582C8CAC583CA6A
:100DB000F0A3C8C582C8CAC583CADFE9DEE780BE22
:010F310000BF
:100C9000EB9FF5F0EA9E42F0E99D42F0EC6480C8DB
:060CA00064809845F0227B
:10080000E536242AF8E60536227827300702782ACA
:10081000E475F001120CFE020CA62000EB7F2ED234
:10082000008018EF540F2490D43440D4FF30040BD0
:10083000EF24BFB41A0050032461FFE537600215AE
:1008400037053AE53A7002053930070D7827E47527
:10085000F001120CFEEF020CEC020F867403D207BB
:100860008003E4C207F5368B278A288929E4F53707
:10087000F539F53AE53760077F2012083B80F575BA
:1008800038FFC201C200C202C203C205C206C208CA
:10089000120809FF700D3007057F0012084CAF3AAF
:1008A000AE3922B4255FC2D5C204120809FF24D094
:1008B000B40A00501A75F00A783730D50508B6FF2B
:1008C0000106C6A426F620D5047002D20380D924DE
:1008D000CFB41A00EF5004C2E5D204020A4CD20190
:1008E00080C6D20080C0D20280BCD2D580BAD205E8
:1008F00080B47F2012083B2002077401B537004006
:10090000F1120800FF12083B020874D208D20680D8
:1009100095120800FB120800FA120800F94A4B7001
:1009200006791D7A0B7BFF20022EE537602A7E00B8
:100930008E82758300120CBF60060EEE653870F073
:10094000C2D5EBC0E0EAC0E0E9C0E0EE120A93D005
:10095000E0F9D0E0FAD0E0FB120CA6FF60AAEBC0F1
:10096000E0EAC0E0E9C0E012083BD0E02401F9D0A1
:10097000E03400FAD0E0FBE5380460DCD538D980FB
:10098000877BFF7A0A798FD202809C791080027966
:1009900008C206C2088008D2D5790A8004790AC242
:1009A000D5E538047002F538E4FAFDFEFF120800C0
:1009B000FC7B08200113120800FD7B1030000A1296
:1009C0000800FE120800FF7B20EC3382D592D55040
:1009D00013C3E43000069FFFE49EFEE42001039D64
:1009E000FDE49CFCE4CBF8C201EC700CCFCECDCC86
:1009F000E824F8F870F38017C3EF33FFEE33FEED11
:100A000033FDEC33FCEB33FB994002FB0FD8E9EBF1
:100A1000300105F8D0E0C448B201C0E00AEC4D4E08
:100A20004F78207B0070C2EAB5380040BCC0E012AD
:100A30000A95D0F0D0E0200104C4C0E0C4B201C0E7
:100A4000F0120824D0F0D5F0EB020874120D0E0954
:100A50001153098B5808E24C08DE42098F4F099761
:0F0A60004409974908F743099D550981460981C3
:100A6F00450981470B3D5008E62D08EA2E090D2B4D
:100A7F0008EE23090B200B262A08A64800000905BB
:100A8F003F3F3F00790AA2D5200314300509B91062
:100A9F00020404B9080104A2D52006025001042063
:100AAF0002689202B537005034C0E07F203003193E
:100ABF007F30A20272067205500F120AECC202C2F8
:100ACF0006C205C2087F30800F300503E9C0E0126F
:100ADF00083B300503D0E0F9D0E0B537CC3005172F
:100AEF007F30B9100C12083B7F583004077F788095
:100AFF0003B9080312083B3002057F2D02083B7F24
:100B0F00202008F87F2B2006F322920280CF286E38
:100B1F00756C6C2900D2011208003001F8C20178FF
:100B2F003730D50108F60208A62D50434958120850
:100B3F00002403B405004001E4900B389312082CF5
:0D0B4F00743A12082CD20375370402098B8A
:100CA600BB010689828A83E0225002E722BBFE024C
:090CB600E32289828A83E493227F
:100CBF00BB010CE58229F582E5833AF583E02250EA
:100CCF0006E92582F8E622BBFE06E92582F8E22234
:0D0CDF00E58229F582E5833AF583E493224E
:100CEC00BB010689828A83F0225002F722BBFE01E7
:020CFC00F322E1
:100CFE00FAE6FB0808E6F925F0F618E6CA3AF622F7
:100D0E00D083D082F8E4937012740193700DA3A374
:100D1E0093F8740193F5828883E473740293686088
:060D2E00EFA3A3A380DF88
:00000001FF
