:0300000002017585
:0C017500787FE4F6D8FD75813D0201BCE6
:1004C800BBB6D3ADC0B4B5BDBBA5C1AACDF8BDBB45
:1004D800CDA800BBB6D3ADD4D9B4CEC0B4B5BDCDCC
:1004E800A3B3B5B3A1003F065B4F666D7D077F6F71
:1004F800FD0000010000010203040506070809FDCC
:0A050800000801015B7631325D86C8
:10055800013401012700022C032A022502EE023C85
:1005680006A4C105C10702370000023A000001399C
:0F05780000022E000002310000C101022100012B
:0C000E00E534C454F004FD7F480205E412
:0605C800D2967F057E00C3
:1005CE00D3EF9400EE9400400C0000000000EF1FEB
:0605DE0070EE1E80EB220E
:0A007E00D296D2971205CAC297224B
:1005FE007D011205C8C296309709EDD3946450035D
:08060E000D80F41205CAC2962A
:0106160022C1
:0A063F00D296C2971205CAD2972284
:02001E00AD072C
:10002000C2967F017E001205CEE4FCED25E0FD9234
:0F00300097C2961205CA1205C8C2960CBC08ECFE
:01003F00229E
:1005E400AB05AD0712007EAF0512001E1205FEAF6B
:0A05F4000312001E1205FE02063F6E
:10058800E4FDFCE4FBFAC3EB9FEA9E50070BBB00BB
:0F059800010A80F20DBD00010CED64554C70E4BA
:0105A7002231
:080003008F993099FDC299228A
:080649002000FDD2008F9B226E
:080651002000FDD2008FAD2254
:080659002000FDD2008F852274
:060283008B0F8A108911A7
:10028900E4FEFDFCF512AB0FAA10A911AF1205127D
:100299008F8275830012020170ECFEBE040AE52705
:1002A90033333354F8FC8010BE0207E5122403FCF3
:1002B9008006EE9004F893FCEC6205AF041206592F
:1002C9000EBE05D7E4FEEEC395125017AB0FAA1068
:1002D900A9118E82758300120201FF620512065967
:1002E9000E80E3AF051206597F147E00120588209F
:0902F90092FD7F147E00020588CD
:060096008B0A8A0B890CA5
:10009C00E4FFF50DF50EFEAB0AAA0BA90CAD060E8E
:1000AC008D8275830012020170EDEE2406FDE4339F
:1000BC00FCD3ED9440EC648094804003020174E422
:1000CC00FFBF040BE52733333354F8F50E8011BF13
:1000DC000207EE2403F50E8007EF9004F893F50E5B
:1000EC0074002FF582E43400F583E50EF0620D0FF9
:1000FC00BF05CEE4FFEFC39E5028AB0AAA0BA90C98
:10010C008F82758300120201FD74052FF582E43491
:10011C0000F583EDF08F82758300120201620D0FE2
:10012C0080D374052EF582E43400F583E50DF0AF31
:10013C0006EF2406F52FE433F52EE4F531F532D233
:10014C0001200024C3E532952FE531952E5019D2AC
:10015C00000532E532AE3170020531142400F5820F
:08016C0074003EF583E0F58507
:010174002268
:10062E00C374FF9FFF74FF9EC28C8F8AF58CD28C91
:01063E002299
:070661008E2C8F2D02062EE6
:1005A80020B2150538E53870020537C3940AE537D7
:1005B8009400400BD2058002C205E4F537F53822D5
:1003CE00E4F593F594F591F592F595F596F5B175ED
:1003DE00B2C0F5B3F5B4F5C9F5CA5389F043890136
:1003EE00F58AF58CC28DD28CD2A9538E7F5389F0AB
:1003FE00F58B758DDCD2ABD28E759850759A1075C3
:10040E008410438E01538EFB75D7E875D6FF438E4D
:0B041E0010C20075AF11D2ACD2AF22AB
:10036A00AE35AF367C007D6412022E74EE2FF58214
:10037A0074043EF583E493FD7F681205E4AE35AF5D
:10038A00367C007D6412022E7E007F0ACFCDCFCE4E
:10039A00CCCE12022E74EE2FF58274043EF583E45D
:1003AA0093FD7F6A1205E4AE35AF367C007D0A12F2
:1003BA00022E74EE2DF58274043CF583E493FD7FDE
:0403CA006C0205E4D8
:100302001203CE7BFF7A0479C8803F12000E1203DB
:100312006A0509E50970020508B4F40CE508B401A0
:1003220007E4F508F509B2CD1205A8E539702030C9
:10033200051DAF3DAE3C120661D207753901753A13
:1003420001753B2C7BFF7A0479DB12009680BCE5B9
:1003520039B401B7E53B453A70B1AF26AE25120676
:0803620061C207E4F53980A334
:03000B0002047E6E
:0B047E00C0E0C0D075D000C006C00771
:10048900E521702AE52224FE600E047021D2A5AF71
:100499002DAE2C12062E8016C2A5C37420952DFFF1
:1004A900744E952CFE12062E752100752200052228
:0604B900E522700205219E
:0904BF00D007D006D0D0D0E03205
:03001B00020512C9
:04051200C0E0C0D0B5
:1005160005230524300220E523B4641E7523000557
:1005260036E53670020535B4E710E535B4030B75CC
:1005360035007536008003752300D3E53B9400E54E
:0D0546003A94004008E53B153B7002153A61
:05055300D0D0D0E03221
:0300430002004672
:10004600C0E0C0D075D000C000C007E59A30E10519
:10005600539AFDC200E59A30E015539AFEAF330578
:100066003374282FF8A69BE599B4DD03753300D0C9
:0800760007D000D0D0D0E03229
:03008B0002061753
:10061700C0E0E5AC30E10553ACFDC200E5AC30E02D
:070627000353ACFED0E032EA
:030093000204293B
:10042900C0E0C083C082C0D075D000C006E584306A
:10043900E1305384FD300126C3E532952FE531952E
:100449002E501B0532E532AE3170020531142400FD
:10045900F58274003EF583E0F585D2008004C20080
:10046900C201E58430E0035384FED006D0D0D082A7
:05047900D083D0E03249
:10018100020302E493A3F8E493A34003F68001F28F
:1001910008DFF48029E493A3F85407240CC8C3337F
:1001A100C4540F4420C8834004F456800146F6DF4E
:1001B100E4800B0102040810204080900558E47E81
:1001C100019360BCA3FF543F30E509541FFEE49343
:1001D100A360010ECF54C025E060A840B8E493A30A
:1001E100FAE493A3F8E493A3C8C582C8CAC583CA35
:1001F100F0A3C8C582C8CAC583CADFE9DEE780BEED
:010587000073
:10020100BB010CE58229F582E5833AF583E02250B2
:1002110006E92582F8E622BBFE06E92582F8E222FC
:0D022100E58229F582E5833AF583E4932216
:10022E00BC000BBE0029EF8DF084FFADF022E4CCB4
:10023E00F875F008EF2FFFEE33FEEC33FCEE9DEC7D
:10024E00984005FCEE9DFE0FD5F0E9E4CEFD22EDC3
:10025E00F8F5F0EE8420D21CFEADF075F008EF2F0D
:10026E00FFED33FD4007985006D5F0F222C398FDFE
:05027E000FD5F0EA229B
:00000001FF
