:0300000002036593
:0C036500787FE4F6D8FD7581440203ACFB
:1005D100D2BBBAC5D5BE00B6FEBAC5D5BE00C8BA33
:1005E100C5D5BE00CBC4BAC5D5BE00CEE5BAC5D50A
:1005F100BE00BBB6D3ADCAB9D3C3D6C7C4DCB3B58D
:0606010000FD00000100F5
:09074500012100012D0001270033
:10000600D3EF9400EE9400400B7D6EDDFEEF1F7083
:04001600EF1E80EC6D
:01001A0022C3
:09074F00C292D296D2A2C2CD22C0
:09075800D292C296C2A2D2CD22B7
:09076100C292C296D2A2C2CD22BE
:09076A00C292D296C2A2C2CD22B5
:09077300C292C296C2A2C2CD22BC
:1007140020B30C7F147E0012000620B302D322C340
:0107240022B2
:1000460020B50830A30530A102801F20A30830A1E7
:1000560005752701801E20A10830A305752702809B
:100066001B20A30B20B50820A105E4F5278010E589
:1000760027B40103020761E527B4020302076A12E7
:03008600074F22FF
:09077C00758901E4F58AF58C226F
:10072500538EBF53890FE4F58B758DDCC28FC28E56
:0107350022A1
:1006FF00D2A0000000000000000000000000000079
:05070F000000C2A02261
:0F07360075AC5075D5E075D4FE75D10AC200229E
:1006D000759850759A1075841075D7E075D6FE75AB
:0806E0008E15E4F52AC2002288
:080785002000FDD2008F992233
:08078D002000FDD2008F9B2229
:080795002000FDD2008FAD220F
:08079D002000FDD2008F85222F
:100670008B0E8A0F8910AB0EAA0FA9101202FB6015
:10068000130510E5107002050F14F91202FBFF129A
:05069000079D80E2223D
:0603F1008B0A8A0B890C47
:1003F700E4FEFDFCF50DAB0AAA0BA90CAF0D050D2C
:100407008F8275830012031470ECFEBE040AE52187
:1004170033333354F8FC8010BE0207E50D2403FC88
:100427008006EE90060293FCEC6205AF0412079576
:100437000EBE05D7E4FEEEC3950D5017AB0AAA0B07
:10044700A90C8E82758300120314FF6205120795AB
:100457000E80E3AF051207957F327E00120006205B
:09046700A6FD7F327E00020006B2
:10055D00EF24FE601514601A14601F146024240427
:10056D0070297BFF7A0579D1801E7BFF7A0579D8BA
:10057D0080167BFF7A0579DF800E7BFF7A0579E5A2
:0C058D0080067BFF7A0579EC1203F12256
:10002600AF33EFC394014013EFD39405500DEF6542
:0B0036002D60058F2D12055DE4F533F1
:01004100229C
:10069500120714501B120773120714500C1207731C
:1006A5007F147E0012000680EF7F647E0012000634
:0106B5002222
:1006070012077C1207251206D0120736C288D2A815
:1006170075AF19D2ACD2AF75A2407594FCE4F593CF
:100627007592FCF591759604F59575B210F5B1754F
:05063700CAFFF5C92215
:1004E800E4F508F5091206077BFF7A0579F312038C
:1004F800F10509E50970020508AE08FFE4FCFD7B7B
:10050800507AC3F9F8C312034F7006F508F509B21B
:10051800CCE526B40706E4F52612074FE526B4080D
:1005280006E4F526120758E526B40906E4F526126E
:100538000761E526B40606E4F52612076AE526B43F
:100548000506E4F526120773E526B40CA4E4F5269F
:05055800120046809C2A
:0300030002047084
:10047000C0E0C0F0C083C082C0D075D000C000C052
:1004800001C002C003C004C005C006C007C2A8C2A4
:100490008CAF8CEFFEAD8A7C00E42DF52CEC3EF5A4
:1004A0002B758C00758A00AC2BAD2CE41202417BBD
:1004B0009A7A9979D9783F120096E4FBFA79C8784C
:1004C0004212019F12027A8E2B8F2CD2A8D007D015
:1004D00006D005D004D003D002D001D000D0D0D0B7
:0804E00082D083D0F0D0E0329D
:03001B0002001EC2
:01001E0032AF
:0300230002063C96
:10063C00C0E0C0D075D000C000C007309904C2998A
:10064C00C200309816C298AF2A052A742E2FF8A62D
:10065C0099E52AC394164003752A00D007D000D020
:04066C00D0D0E032D8
:030043000205991A
:10059900C0E0C0D075D000C000C007E59A30E105C1
:1005A900539AFDC200E59A30E015539AFEAF28052B
:1005B9002874222FF8A69BE59BB4DD03752800D08B
:0805C90007D000D0D0D0E032D1
:03008B000206E882
:1006E800C0E0E5AC30E10553ACFDC200E5AC30E05C
:0706F8000353ACFED0E03219
:030093000206B6AC
:1006B600C0E0E58430E1055384FDC200E58430E006
:0A06C600065384FE858526D0E0323D
:10009600EC4D6011E8497017ED33EC3304600DE464
:1000A600FCFFFEFD22E933E8330470F80202E61293
:1000B60002B158046009E4CC248150062850090294
:1000C60002F02840030202EDC0E0EB4A7044B9801A
:1000D60006D0E0FB0202DCEF4E701CBD8008EBFF91
:1000E600EAFEE9FD80EBE98DF0A4FEE5F002017F72
:1000F600E9CDF9EAFEEBFFEF89F0A4FCE5F0CE8945
:10010600F0A42EFFE435F0CD89F0A42DFEE435F001
:100116008067EF4E7005BD80D780C3EF8BF0A4AC2F
:10012600F0EE8BF0A42CFCE435F0F8EF8AF0A42C6A
:10013600E5F038FCE433CB8DF0A42CFCE5F03BF87D
:10014600EE8AF0A42CFCE5F038F8E433CF89F0A46D
:100156002CFCE5F038CF3400CE89F0A42FFFE5F073
:100166003EFEE433C98DF0A42EFEE5F039CD8AF0CB
:10017600A42FFFE5F03EFEE43DFD33D0E0FB500743
:100186000BBB000F0202F0EC2CFCEF33FFEE33FE4C
:06019600ED33FD0202C87A
:10019C000202F0EC5D046005E8590470030202E60B
:1001AC001202B1580460F6EC4860F2EC7004FDFEEB
:1001BC00FF22C860DB2481C85009C3986002500636
:1001CC000202ED9850CAF582E9294B4A7005AB82C0
:1001DC000202DC75F0007C1A7880C3EF9BEE9AED7E
:1001EC0099400DC3EF9BFFEE9AFEED99FDE842F0AE
:1001FC00DC23ACF0D0E0FFD0E0FED0E0FDAB822001
:10020C00E7101BEB60BAEC2CFCEF33FFEE33FEED8A
:10021C0033FD0202C8E803F830E705C0F075F000C2
:10022C00EF2FFFEE33FEED33FD40B830E7C280AA6E
:10023C0075F020800E75F010800575F0087D007E3D
:10024C00007F003392D530D503120341EC334010BC
:10025C00EF33FFEE33FEED33FDEC33FCD5F0ED2246
:0E026C00E5F0247EA2D513CC92E7CDCEFF2282
:10027A00EDD2E7CD33EC3392D524814006E4FFFE7C
:10028A00FDFC22FCE4CFCECDCC24E0501174FF80DB
:10029A00EDC3CC13CCCD13CDCE13CECF13CF047078
:0702AA00F030D5DE02034134
:1002B100E9D2E7C933E833F892D5EDD2E7CD33EC93
:0702C10033FC5002B2D5220C
:1002C800EC30E7100FBF000C0EBE00080DBD000497
:1002D8000BEB6014A2D5EB13FCED92E7FD2274FF43
:1002E800FCFDFEFF22E480F8A2D574FF13FC7D809C
:0302F800E480EFB0
:100371000204E8E493A3F8E493A34003F68001F2B6
:1003810008DFF48029E493A3F85407240CC8C3338D
:10039100C4540F4420C8834004F456800146F6DF5C
:1003A100E4800B0102040810204080900745E47EA0
:1003B100019360BCA3FF543F30E509541FFEE49351
:1003C100A360010ECF54C025E060A840B8E493A318
:1003D100FAE493A3F8E493A3C8C582C8CAC583CA43
:1003E100F0A3C8C582C8CAC583CADFE9DEE780BEFB
:01074E0000AA
:1002FB00BB010689828A83E0225002E722BBFE0201
:09030B00E32289828A83E4932233
:10031400BB010CE58229F582E5833AF583E022509E
:1003240006E92582F8E622BBFE06E92582F8E222E8
:0D033400E58229F582E5833AF583E4932202
:0E034100C3E49FFFE49EFEE49DFDE49CFC22CD
:10034F00EB9FF5F0EA9E42F0E99D42F0EC6480C825
:06035F0064809845F022C5
:00000001FF
