:0300000002000EED
:0C000E00787FE4F6D8FD758120020055D3
:1001B8000A0AC0F9A4B0999282F8809001160C013D
:1001C800170301150AC102C101C100010800010994
:0101D8000026
:1001DA00E4FDFCE4FBFAC3EB9FEA9E50070BBB006D
:0F01EA00010A80F20DBD00010CED64554C70E46C
:0101F90022E3
:10018F00E4F593F594F591F592F595F596F5B1F5AE
:10019F00B2F5B3F5B4F5C9F5CA538E7F5389F0F5AF
:0901AF008A758CDCD2A9D28C22E5
:10012E00C2CDD2CCE51875F00A84740A25F0F8E633
:10013E00F5907F037E001201DA7590FFD2CDC2CC0E
:10014E00E51875F00A84240AF8E6F5901201DA75BE
:03015E0090FF22ED
:0F01FA00E4F514851518C2B4D2B3D2B2C20022F4
:1000F500E5141460161460222402702C7514018511
:100105001718D2B4C2B3D2B2D20022751402851622
:1001150018D2B4D2B3C2B2C20022E4F514851518C0
:09012500C2B4D2B3D2B2C200226E
:10009A0012018F1201FAD2AF12012E30013FC201B2
:1000AA00B200E514B4010B300003C38001D392B34C
:1000BA00802BE5147012E518D39405500B30000319
:1000CA00C38001D392B48015E514B40210E518D3A5
:1000DA0094055009300003C38001D392B23002B8AC
:0B00EA00C202E51870B21200F580ADF4
:03000B000201618E
:04016100C0E0C0D06A
:1001650005080509E508C39464400E750800D20228
:10017500E518D3940040021518E509C394324005EB
:05018500750900D20124
:05018A00D0D0D0E032EE
:10001A0002009AE493A3F8E493A34003F68001F262
:10002A0008DFF48029E493A3F85407240CC8C333E7
:10003A00C4540F4420C8834004F456800146F6DFB6
:10004A00E4800B01020408102040809001B8E47E8D
:10005A00019360BCA3FF543F30E509541FFEE493AB
:10006A00A360010ECF54C025E060A840B8E493A372
:10007A00FAE493A3F8E493A3C8C582C8CAC583CA9D
:10008A00F0A3C8C582C8CAC583CADFE9DEE780BE55
:0101D9000025
:00000001FF
