:0300000002045C9B
:0C045C00787FE4F6D8FD7581450204A30A
:10061C00D2BBBAC5D5BE00B6FEBAC5D5BE00C8BAE7
:10062C00C5D5BE00CBC4BAC5D5BE00CEE5BAC5D5BE
:10063C00BE00BBB6D3ADCAB9D3C3D6C7C4DCB3B541
:0B064C0000CDA3B3B500FD00000100CD
:0E07D400012100C100012700012E00012800B4
:070026001207FD7F0A7E00B6
:10002D00D3EF9400EE9400400B7D6EDDFEEF1F705C
:04003D00EF1E80EC46
:01004100229C
:0907FD00C292D296D2A2C2CD2212
:09080600D292C296C2A2D2CD2208
:09080F00C292C296D2A2C2CD220F
:09081800C292D296C2A2C2CD2206
:09082100C292C296C2A2C2CD220D
:1007A30020B30C7F147E0012002D20B302D322C38A
:0107B3002223
:1000460020B50830A30530A102801F20A30830A1E7
:1000560005752801801E20A10830A3057528028099
:100066001B20A30B20B50820A105E4F5288010E588
:1000760028B4010302080FE528B402030208181287
:0300860007FD2251
:0D07E30012002612080F7F237E0002002D59
:0D07F0001200261208187F237E0002002D43
:09082A00758901E4F58AF58C22C0
:1007B400538EBF53890FE4F58B758DDCC28FC28EC7
:0107C4002212
:10000600D2A0000000000000000000000000000078
:050016000000C2A02261
:0F07C50075AC5075D5E075D4FE75D10AC201220E
:10077400759850759A1075841075D7E075D6FE7506
:080784008E15E4F52BC20122E1
:080833002001FDD2018F992282
:08083B002001FDD2018F9B2278
:080843002001FDD2018FAD225E
:08084B002001FDD2018F85227E
:1006F8008B0E8A0F8910AB0EAA0FA9101202FB608D
:10070800130510E5107002050F14F91202FBFF1211
:05071800084B80E22205
:0604E8008B0A8A0B890C4F
:1004EE00E4FEFDFCF50DAB0AAA0BA90CAF0D050D34
:1004FE008F8275830012031470ECE4FEBE040AE5CD
:10050E002133333354F8FC8010BE0207E50D24036B
:10051E00FC8006EE90065293FCEC6205AF041208C6
:10052E00430EBE05D7E4FEEEC3950D5017AB0AAAD7
:10053E000BA90C8E82758300120314FF620512083C
:10054E00430E80E3AF051208437F327E0012002D6A
:0A055E0020A6FD7F327E0002002D72
:1005E000EF24FE601514601A14601F1460242404A4
:1005F00070297BFF7A06791C801E7BFF7A0679239F
:1006000080167BFF7A06792A800E7BFF7A06793086
:0C06100080067BFF7A0679371204E8228E
:10073E00AF34EFC394014013EFD39405500DEF6522
:0B074E002E60058F2E1205E0E4F5344C
:01075900227D
:10071D001207A3501B1208211207A3500C12082117
:10072D007F147E0012002D80EF7F647E0012002D5D
:01073D002299
:10068F0012082A1207B41207741207C5C288D2A81B
:10069F0075AF19D2ACD2AF75A2407594FCE4F59347
:1006AF007592FCF591759604F59575B210F5B175C7
:0506BF00CAFFF5C9228D
:10036500E4F508F50912068F7BFF7A06793E12043B
:10037500E80509E50970020508AE08FFE4FCFD7B08
:10038500507AC3F9F8C312034F7006F508F509B2A0
:10039500CC120006D28CE526604324FB6034146041
:1003A5002A24FE60111460151460192403702BD2E1
:1003B500007527018024D200752702801DD20075A3
:1003C50027038016D200752704800FD200E4F52795
:1003D5008008C200E4F527120821E4F5263000352F
:1003E50012073EE527602624FE6010146013146092
:1003F500162403701A1207FD02037612080602037B
:10040500761207E30203761207F0020376800012E4
:10041500082102037612071D12073E120046C3E5A6
:100425002D9405E52C94004003020376E52D9403F5
:10043500E52C940050030203761208217BFF7A060F
:10044500794D1204E87FA112083B7F0112083B7F1A
:07045500DD12083B020376F3
:030003000205688B
:10056800C0E0C0F0C083C082C0D075D000C000C059
:1005780001C002C003C004C005C006C007C2A8C2AB
:100588008CAF8CEFFEAD8A7C00E42DF52DEC3EF5AA
:100598002C758C00758A00AC2CAD2DE41202417BC1
:1005A8009A7A9979D9783F120096E4FBFA79C87853
:1005B8004212019F12027A8E2C8F2DD2A8D007D01A
:1005C80006D005D004D003D002D001D000D0D0D0BE
:0805D80082D083D0F0D0E032A4
:03001B0002001EC2
:01001E0032AF
:030023000206C40E
:1006C400C0E0C0D075D000C000C007309904C29902
:1006D400C201309816C298AF2B052B742F2FF8A6A1
:1006E40099E52BC394164003752B00D007D000D096
:0406F400D0D0E03250
:030043000206575B
:10065700C0E0C0D075D000C000C007E59A30E10502
:10066700539AFDC201E59A30E015539AFEAF29056A
:100677002974222FF8A69BE59BB4DD03752900D0CA
:0806870007D000D0D0D0E03212
:03008B0002078CDD
:10078C00C0E0E5AC30E10553ACFDC201E5AC30E0B6
:07079C000353ACFED0E03274
:0300930002075A07
:10075A00C0E0E58430E1055384FDC201E58430E060
:0A076A00065384FE858526D0E03298
:10009600EC4D6011E8497017ED33EC3304600DE464
:1000A600FCFFFEFD22E933E8330470F80202E61293
:1000B60002B158046009E4CC248150062850090294
:1000C60002F02840030202EDC0E0EB4A7044B9801A
:1000D60006D0E0FB0202DCEF4E701CBD8008EBFF91
:1000E600EAFEE9FD80EBE98DF0A4FEE5F002017F72
:1000F600E9CDF9EAFEEBFFEF89F0A4FCE5F0CE8945
:10010600F0A42EFFE435F0CD89F0A42DFEE435F001
:100116008067EF4E7005BD80D780C3EF8BF0A4AC2F
:10012600F0EE8BF0A42CFCE435F0F8EF8AF0A42C6A
:10013600E5F038FCE433CB8DF0A42CFCE5F03BF87D
:10014600EE8AF0A42CFCE5F038F8E433CF89F0A46D
:100156002CFCE5F038CF3400CE89F0A42FFFE5F073
:100166003EFEE433C98DF0A42EFEE5F039CD8AF0CB
:10017600A42FFFE5F03EFEE43DFD33D0E0FB500743
:100186000BBB000F0202F0EC2CFCEF33FFEE33FE4C
:06019600ED33FD0202C87A
:10019C000202F0EC5D046005E8590470030202E60B
:1001AC001202B1580460F6EC4860F2EC7004FDFEEB
:1001BC00FF22C860DB2481C85009C3986002500636
:1001CC000202ED9850CAF582E9294B4A7005AB82C0
:1001DC000202DC75F0007C1A7880C3EF9BEE9AED7E
:1001EC0099400DC3EF9BFFEE9AFEED99FDE842F0AE
:1001FC00DC23ACF0D0E0FFD0E0FED0E0FDAB822001
:10020C00E7101BEB60BAEC2CFCEF33FFEE33FEED8A
:10021C0033FD0202C8E803F830E705C0F075F000C2
:10022C00EF2FFFEE33FEED33FD40B830E7C280AA6E
:10023C0075F020800E75F010800575F0087D007E3D
:10024C00007F003392D530D503120341EC334010BC
:10025C00EF33FFEE33FEED33FDEC33FCD5F0ED2246
:0E026C00E5F0247EA2D513CC92E7CDCEFF2282
:10027A00EDD2E7CD33EC3392D524814006E4FFFE7C
:10028A00FDFC22FCE4CFCECDCC24E0501174FF80DB
:10029A00EDC3CC13CCCD13CDCE13CECF13CF047078
:0702AA00F030D5DE02034134
:1002B100E9D2E7C933E833F892D5EDD2E7CD33EC93
:0702C10033FC5002B2D5220C
:1002C800EC30E7100FBF000C0EBE00080DBD000497
:1002D8000BEB6014A2D5EB13FCED92E7FD2274FF43
:1002E800FCFDFEFF22E480F8A2D574FF13FC7D809C
:0302F800E480EFB0
:10046800020365E493A3F8E493A34003F68001F242
:1004780008DFF48029E493A3F85407240CC8C33395
:10048800C4540F4420C8834004F456800146F6DF64
:10049800E4800B01020408102040809007D4E47E19
:1004A800019360BCA3FF543F30E509541FFEE49359
:1004B800A360010ECF54C025E060A840B8E493A320
:1004C800FAE493A3F8E493A3C8C582C8CAC583CA4B
:1004D800F0A3C8C582C8CAC583CADFE9DEE780BE03
:0107E2000016
:1002FB00BB010689828A83E0225002E722BBFE0201
:09030B00E32289828A83E4932233
:10031400BB010CE58229F582E5833AF583E022509E
:1003240006E92582F8E622BBFE06E92582F8E222E8
:0D033400E58229F582E5833AF583E4932202
:0E034100C3E49FFFE49EFEE49DFDE49CFC22CD
:10034F00EB9FF5F0EA9E42F0E99D42F0EC6480C825
:06035F0064809845F022C5
:00000001FF
