:03000000020026D5
:0C002600787FE4F6D8FD75812002006DA3
:100253000A0AC0F9A4B0999282F8809001190001AA
:10026300160C01170301150AC102C101C103C10024
:08027300C104010800010900AB
:10027C00E4FDFCE4FBFAC3EB9FEA9E50070BBB00CA
:0F028C00010A80F20DBD00010CED64554C70E4C9
:01029B002240
:10014B00E4F593F594F591F592F595F596F5B1F5F2
:10015B00B2F5B3F5B4F5C9F5CA538E7F5389F0F5F3
:10016B008A758CDCD2A9D28C759850438E01538E34
:0E017B00FB75D7E875D6FF438E1043A24022D5
:1001C200C2CDD2CCE51875F00A84740A25F0F8E69F
:1001D200F5907F037E0012027C7590FFD2CDC2CCD7
:1001E200E51875F00A84240AF8E6F59012027C7587
:0301F20090FF2259
:10029C00D2CDC2CC7590BF7F037E0012027C7590CC
:0F02AC00FFC2CDD2CC7590BF12027C7590FF229D
:0B02BB00D203D2B4D2B2C2B3D20022F0
:10000E00C203E4F514851518C2B4D2B3D2B2C2003D
:01001E0022BF
:10018900E5141460161460222402702C751401857C
:100199001718D2B4C2B3D2B2D2002275140285168E
:1001A90018D2B4D2B3C2B2C20022E4F5148515182C
:0901B900C2B4D2B3D2B2C20022DA
:10022600E51AB4A51CE51EB4DD17E51B24FE600E19
:1002360004700E851C15851D1612000E8003120211
:0C024600BB7F06781AE4F608DFFCC20457
:010252002289
:1000B20012014B12000ED2ACD2AF30030512029CD9
:1000C20080031201C2300403120226300122C2014F
:1000D20030030DB200300003C38001D392B380100D
:1000E200E514B4010BB200300003C38001D392B314
:1000F2003002C7C2022003C2E51870BE1201898015
:01010200B943
:03000B000201F5FA
:0401F500C0E0C0D0D6
:1001F90005080509E508C394644011750800D20291
:10020900200309E518D3940040021518E509C394A1
:08021900324005750900D20115
:05022100D0D0D0E03256
:03002300020103D4
:10010300C0E0C0D075D000C000309835C29820043C
:1001130030741A2519F8A699E5197008E51A64A52B
:100123006002801AE519B4040CE51EB4DD077519E5
:1001330000D204800C0519E519C394064003751910
:0801430000D000D0D0D0E03262
:100032000200B2E493A3F8E493A34003F68001F232
:1000420008DFF48029E493A3F85407240CC8C333CF
:10005200C4540F4420C8834004F456800146F6DF9E
:10006200E4800B0102040810204080900253E47ED9
:10007200019360BCA3FF543F30E509541FFEE49393
:10008200A360010ECF54C025E060A840B8E493A35A
:10009200FAE493A3F8E493A3C8C582C8CAC583CA85
:1000A200F0A3C8C582C8CAC583CADFE9DEE780BE3D
:01027B000082
:00000001FF
