:0300000002036593
:0C036500787FE4F6D8FD7581460203ACF9
:10066100D2BBBAC5D5BE00B6FEBAC5D5BE00C8BAA2
:10067100C5D5BE00CBC4BAC5D5BE00CEE5BAC5D579
:10068100BE00BBB6D3ADCAB9D3C3D6C7C4DCB3B5FC
:0606910000FD0000010065
:0C078F00012200012B00012F06012800B0
:10000600D3EF9400EE9400400B7D6EDDFEEF1F7083
:04001600EF1E80EC6D
:01001A0022C3
:09079C00C292D296D2A2C2CD2273
:0907A500D292C296C2A2D2CD226A
:0907AE00C292C296D2A2C2CD2271
:0907B700C292D296C2A2C2CD2268
:0907C000C292C296C2A2C2CD226F
:1007440020B30F7F147E0012000620B3057E007FC5
:060754000122E4FEFF2279
:1000460020B50830A30530A102801F20A30830A1E7
:1000560005752801801E20A10830A3057528028099
:100066001B20A30B20B50820A105E4F5288010E588
:1000760028B401030207AEE528B402030207B7124B
:03008600079C22B2
:0907C900758901E4F58AF58C2222
:10076F00538EBF53890FE4F58B758DDCC28FC28E0C
:01077F002257
:10075A00D2A000000000000000000000000000001D
:05076A000000C2A02206
:0F07800075AC5075D5E075D4FE75D10AC2012253
:10071500759850759A1075841075D7E075D6FE7565
:080725008E15E4F52CC201223F
:0807D2002001FDD2018F9922E4
:0807DA002001FDD2018F9B22DA
:0807E2002001FDD2018FAD22C0
:0807EA002001FDD2018F8522E0
:1006CB008B0E8A0F8910AB0EAA0FA9101202FB60BA
:1006DB00130510E5107002050F14F91202FBFF123F
:0506EB0007EA80E22295
:0603F1008B0A8A0B890C47
:1003F700E4FEFDFCF50DAB0AAA0BA90CAF0D050D2C
:100407008F8275830012031470ECE4FEBE040AE5C4
:100417002233333354F8FC8010BE0207E50D240362
:10042700FC8006EE90069293FCEC6205AF0412077F
:10043700E20EBE05D7E4FEEEC3950D5017AB0AAA30
:100447000BA90C8E82758300120314FF6205120735
:10045700E20E80E3AF051207E27F327E001200064C
:0A04670020A6FD7F327E0002000691
:1005B600EF24FE601514601A14601F1460242404CE
:1005C60070297BFF7A067961801E7BFF7A0679683F
:1005D60080167BFF7A06796F800E7BFF7A06797527
:0C05E60080067BFF7A06797C1203F1226C
:10062B0085352BE52BC394014028E52BD39405503E
:10063B0021E52B652F60172008141207C0852B2F7F
:10064B00D208C200AF2B1205B6AF2B1207DAE4F5B6
:06065B003522752F062276
:1006F000120744EF4E601D1207C0120744EF4E6010
:100700000C1207C07F147E0012000680ED7F647E0D
:050710000012000622AA
:1005F2001207C912076F120715120780C288D2A804
:1006020075AF19D2ACD2AF75A2407594FCE4F593E4
:100612007592FCF591759604F59575B210F5B17564
:09062200CAFFF5C9C208C200229A
:1004E900E4F508F5091205F27BFF7A067983120310
:1004F900F10509E50970020508AE08FFE4FCFD7B7A
:10050900507AC3F9F8C312034F7006F508F509B21A
:10051900CC12075AD28C1206F012062B300004C2F4
:1005290000C2083008051207C080C6120046C3E59C
:100539002E9405E52D9400500DE52E9403E52D9498
:100549000040031207C0E527B407A6E4F527120700
:030559009C809EE5
:0300030002047183
:10047100C0E0C0F0C083C082C0D075D000C000C051
:1004810001C002C003C004C005C006C007C2A8C2A3
:100491008CAF8CEFFEAD8A7C00E42DF52EEC3EF5A1
:1004A1002D758C00758A00AC2DAD2EE41202417BB6
:1004B1009A7A9979D9783F120096E4FBFA79C8784B
:1004C1004212019F12027A8E2D8F2ED2A8D007D010
:1004D10006D005D004D003D002D001D000D0D0D0B6
:0804E10082D083D0F0D0E0329C
:03001B0002001EC2
:01001E0032AF
:030023000206973B
:10069700C0E0C0D075D000C000C007309904C2992F
:1006A700C201309816C298AF2C052C74302FF8A6CB
:1006B70099E52CC394164003752C00D007D000D0C1
:0406C700D0D0E0327D
:0300430002055C57
:0D055C00C0E0C0D075D000C000C006C007D0
:10056900E59A30E105539AFDC201E59A30E033532B
:100579009AFEAF9BE529C394044003752900AE296F
:10058900052974232EF8A607BFDD17E523B4A10FAB
:10059900E524B4010AE525B4DD05300802D2007569
:0205A900290027
:0B05AB00D007D006D000D0D0D0E03246
:03008B0002072D3C
:10072D00C0E0E5AC30E10553ACFDC201E5AC30E015
:07073D000353ACFED0E032D3
:0300930002002642
:10002600C0E0E58430E1055384FDC201E58430E09B
:0A003600065384FE858527D0E032D2
:10009600EC4D6011E8497017ED33EC3304600DE464
:1000A600FCFFFEFD22E933E8330470F80202E61293
:1000B60002B158046009E4CC248150062850090294
:1000C60002F02840030202EDC0E0EB4A7044B9801A
:1000D60006D0E0FB0202DCEF4E701CBD8008EBFF91
:1000E600EAFEE9FD80EBE98DF0A4FEE5F002017F72
:1000F600E9CDF9EAFEEBFFEF89F0A4FCE5F0CE8945
:10010600F0A42EFFE435F0CD89F0A42DFEE435F001
:100116008067EF4E7005BD80D780C3EF8BF0A4AC2F
:10012600F0EE8BF0A42CFCE435F0F8EF8AF0A42C6A
:10013600E5F038FCE433CB8DF0A42CFCE5F03BF87D
:10014600EE8AF0A42CFCE5F038F8E433CF89F0A46D
:100156002CFCE5F038CF3400CE89F0A42FFFE5F073
:100166003EFEE433C98DF0A42EFEE5F039CD8AF0CB
:10017600A42FFFE5F03EFEE43DFD33D0E0FB500743
:100186000BBB000F0202F0EC2CFCEF33FFEE33FE4C
:06019600ED33FD0202C87A
:10019C000202F0EC5D046005E8590470030202E60B
:1001AC001202B1580460F6EC4860F2EC7004FDFEEB
:1001BC00FF22C860DB2481C85009C3986002500636
:1001CC000202ED9850CAF582E9294B4A7005AB82C0
:1001DC000202DC75F0007C1A7880C3EF9BEE9AED7E
:1001EC0099400DC3EF9BFFEE9AFEED99FDE842F0AE
:1001FC00DC23ACF0D0E0FFD0E0FED0E0FDAB822001
:10020C00E7101BEB60BAEC2CFCEF33FFEE33FEED8A
:10021C0033FD0202C8E803F830E705C0F075F000C2
:10022C00EF2FFFEE33FEED33FD40B830E7C280AA6E
:10023C0075F020800E75F010800575F0087D007E3D
:10024C00007F003392D530D503120341EC334010BC
:10025C00EF33FFEE33FEED33FDEC33FCD5F0ED2246
:0E026C00E5F0247EA2D513CC92E7CDCEFF2282
:10027A00EDD2E7CD33EC3392D524814006E4FFFE7C
:10028A00FDFC22FCE4CFCECDCC24E0501174FF80DB
:10029A00EDC3CC13CCCD13CDCE13CECF13CF047078
:0702AA00F030D5DE02034134
:1002B100E9D2E7C933E833F892D5EDD2E7CD33EC93
:0702C10033FC5002B2D5220C
:1002C800EC30E7100FBF000C0EBE00080DBD000497
:1002D8000BEB6014A2D5EB13FCED92E7FD2274FF43
:1002E800FCFDFEFF22E480F8A2D574FF13FC7D809C
:0302F800E480EFB0
:100371000204E9E493A3F8E493A34003F68001F2B5
:1003810008DFF48029E493A3F85407240CC8C3338D
:10039100C4540F4420C8834004F456800146F6DF5C
:1003A100E4800B010204081020408090078FE47E56
:1003B100019360BCA3FF543F30E509541FFEE49351
:1003C100A360010ECF54C025E060A840B8E493A318
:1003D100FAE493A3F8E493A3C8C582C8CAC583CA43
:1003E100F0A3C8C582C8CAC583CADFE9DEE780BEFB
:01079B00005D
:1002FB00BB010689828A83E0225002E722BBFE0201
:09030B00E32289828A83E4932233
:10031400BB010CE58229F582E5833AF583E022509E
:1003240006E92582F8E622BBFE06E92582F8E222E8
:0D033400E58229F582E5833AF583E4932202
:0E034100C3E49FFFE49EFEE49DFDE49CFC22CD
:10034F00EB9FF5F0EA9E42F0E99D42F0EC6480C825
:06035F0064809845F022C5
:00000001FF
