:03000000020B5F91
:0C0B5F00787FE4F6D8FD758142020BA6F9
:100DE500B5DAD2BBD5BE00B5DAB6FED5BE00B5DAEA
:100DF50033D5BE00B5DACBC4D5BE00B5DACEE5D560
:070E0500BE00FD000001002A
:030F2500012100A7
:100E3100D3EF9400EE940040167D6EEDD3940074D0
:0F0E410080948040031D80F3EF1F70E41E80E15A
:010E5000227F
:090ECF00C292D296D2A2C2CD2239
:090ED800D292C296C2A2D2CD2230
:090EE100C292C296D2A2C2CD2237
:090EEA00C292D296C2A2C2CD222E
:090EF300C292C296C2A2C2CD2235
:090EFC00758901E4F58AF58C22E8
:100EAF00538EBF53890FE4F58B758DDCC28FC28EC5
:010EBF002210
:100E9A00D2A00000000000000000000000000000D6
:050EAA000000C2A022BF
:0F0EC00075AC5075D5E075D4FE75D10AC200220D
:100E6B00759850759A1075841075D7E075D6FE7508
:080E7B008E15E4F529C20022E6
:080F05002000FDD2008F9922AB
:080F0D002000FDD2008F9B22A1
:080F15002000FDD2008FAD2287
:080F1D002000FDD2008F8522A7
:100E0C008B0F8A108911AB0FAA10A911120A6560F9
:100E1C00130511E5117002051014F9120A65FF1281
:050E2C000F1D80E22211
:060ACF008B0A8A0B890C62
:100AD500E4FEF50DFDF50EAB0AAA0BA90CAF0E054C
:100AE5000E8F82758300120A7E70ECFEEEFB7A0093
:100AF500C3940574809480502CEB6404700AE5213E
:100B050033333354F8FD8013EB64024A7007E50E66
:100B15002403FD8006EE900E0793FDED620DFF1296
:100B25000F150E80C7E4FEEEC3950E5017AB0AAA4B
:100B35000BA90C8E82758300120A7EFF620D120FBF
:100B4500150E80E3AF0D120F157F327E00120E31A8
:0A0B550020A6FD7F327E00020E3163
:100D3B00120EFC120EAF120E6B120EC0C288D2A88E
:100D4B00D28ED2AB75AF19D2ACD2AF75A24075941F
:100D5B00FCE4F5937592FCF591759604F59575B2D7
:090D6B0010F5B175CAFFF5C922AB
:100BEB00120D3B0509E50970020508AE08FFE4FC90
:100BFB00FD7B507AC3F9F8C3120AB97006F508F5F4
:100C0B0009B2CC120E9AD28CE5316401700AF5311F
:100C1B007BFF7A0D79E5803EE5316402700AF53190
:100C2B007BFF7A0D79EC802EE5316403700AF53188
:100C3B007BFF7A0D79F3801EE5316404700AF53180
:100C4B007BFF7A0D79F9800EE5316405700BF53178
:100C5B007BFF7A0E7900120ACFE52664077084F5C4
:070C6B0026120ECF020BEE72
:03000300020C727A
:100C7200C0E0C0F0C083C082C0D075D000C000C048
:100C820001C002C003C004C005C006C007C2A8C29A
:100C92008CAF8CEFFEAD8A7C00E42DF52BEC3EF59B
:100CA2002A758C00758A00AC2AAD2BE41209AB7B45
:100CB2009A7A9979D9783F120800E4FBFA79C878D0
:100CC200421209091209E48E2A8F2BD2A8D007D02A
:100CD20006D005D004D003D002D001D000D0D0D0AD
:080CE20082D083D0F0D0E03293
:03001B00020CEAEA
:100CEA0020B304120EF33230A30820B50530A10256
:100CFA00803B20A30830B50530A102801F30A3082D
:100D0A0030B50520A102802120A30820B50520A125
:100D1A0002801A20A30A20B50730A104120EE1327C
:100D2A0030A30A20B50720A104120EEA32120ECF10
:010D3A003286
:03002300020DAD1E
:100DAD00C0E0C0D075D000C000C007309904C29912
:100DBD00C20030981AC298AF290529742C2FF8A6B5
:100DCD0099C3E5299416748094804003752900D049
:080DDD0007D000D0D0D0E032B5
:03004300020D7437
:100D7400C0E0C0D075D000C000C007E59A30E105DE
:100D8400539AFDC200E59A30E016539AFEAF270548
:100D94002774222FF8A69BAF9BEF64DD7002F52722
:090DA400D007D000D0D0D0E0321D
:03008B00020E83DF
:100E8300C0E0E5AC30E10553ACFDC200E5AC30E0B9
:070E93000353ACFED0E03276
:03009300020E5109
:100E5100C0E0E58430E1055384FDC200E58430E063
:0A0E6100065384FE858526D0E0329A
:10080000EC4D6011E8497017ED33EC3304600DE4F2
:10081000FCFFFEFD22E933E8330470F8020A5012AF
:100820000A1B58046009E4CC2481500628500902B0
:100830000A5A284003020A57C0E0EB4A7044B980C4
:1008400006D0E0FB020A46EF4E701CBD8008EBFFAD
:10085000EAFEE9FD80EBE98DF0A4FEE5F00208E98F
:10086000E9CDF9EAFEEBFFEF89F0A4FCE5F0CE89D3
:10087000F0A42EFFE435F0CD89F0A42DFEE435F090
:100880008067EF4E7005BD80D780C3EF8BF0A4ACBE
:10089000F0EE8BF0A42CFCE435F0F8EF8AF0A42CF9
:1008A000E5F038FCE433CB8DF0A42CFCE5F03BF80C
:1008B000EE8AF0A42CFCE5F038F8E433CF89F0A4FC
:1008C0002CFCE5F038CF3400CE89F0A42FFFE5F002
:1008D0003EFEE433C98DF0A42EFEE5F039CD8AF05A
:1008E000A42FFFE5F03EFEE43DFD33D0E0FB5007D2
:1008F0000BBB000F020A5AEC2CFCEF33FFEE33FE69
:06090000ED33FD020A3296
:10090600020A5AEC5D046005E859047003020A50B5
:10091600120A1B580460F6EC4860F2EC7004FDFE07
:10092600FF22C860DB2481C85009C39860025006C4
:10093600020A579850CAF582E9294B4A7005AB82DC
:10094600020A4675F0007C1A7880C3EF9BEE9AED9A
:1009560099400DC3EF9BFFEE9AFEED99FDE842F03C
:10096600DC23ACF0D0E0FFD0E0FED0E0FDAB82208F
:10097600E7101BEB60BAEC2CFCEF33FFEE33FEED19
:1009860033FD020A32E803F830E705C0F075F000DF
:10099600EF2FFFEE33FEED33FD40B830E7C280AAFD
:1009A60075F020800E75F010800575F0087D007ECC
:1009B600007F003392D530D503120AABEC334010DA
:1009C600EF33FFEE33FEED33FDEC33FCD5F0ED22D5
:0E09D600E5F0247EA2D513CC92E7CDCEFF2211
:1009E400EDD2E7CD33EC3392D524814006E4FFFE0B
:1009F400FDFC22FCE4CFCECDCC24E0501174FF806A
:100A0400EDC3CC13CCCD13CDCE13CECF13CF047006
:070A1400F030D5DE020AAB51
:100A1B00E9D2E7C933E833F892D5EDD2E7CD33EC21
:070A2B0033FC5002B2D5229A
:100A3200EC30E7100FBF000C0EBE00080DBD000425
:100A42000BEB6014A2D5EB13FCED92E7FD2274FFD1
:100A5200FCFDFEFF22E480F8A2D574FF13FC7D802A
:030A6200E480EF3E
:100B6B00020BEBE493A3F8E493A34003F68001F2AA
:100B7B0008DFF48029E493A3F85407240CC8C3338B
:100B8B00C4540F4420C8834004F456800146F6DF5A
:100B9B00E4800B0102040810204080900F25E47EB6
:100BAB00019360BCA3FF543F30E509541FFEE4934F
:100BBB00A360010ECF54C025E060A840B8E493A316
:100BCB00FAE493A3F8E493A3C8C582C8CAC583CA41
:100BDB00F0A3C8C582C8CAC583CADFE9DEE780BEF9
:010F280000C8
:100A6500BB010689828A83E0225002E722BBFE028F
:090A7500E32289828A83E49322C2
:100A7E00BB010CE58229F582E5833AF583E022502D
:100A8E0006E92582F8E622BBFE06E92582F8E22277
:0D0A9E00E58229F582E5833AF583E4932291
:0E0AAB00C3E49FFFE49EFEE49DFDE49CFC225C
:100AB900EB9FF5F0EA9E42F0E99D42F0EC6480C8B4
:060AC90064809845F02254
:00000001FF
