:03000000020A4FA2
:0C0A4F00787FE4F6D8FD75813F020A961E
:100D9500CDA3B3B5BCC6CAB1CFB5CDB3D2D1C6F418
:100DA500B6AF003F065B4F666D7D077F6FBBB6D361
:100DB500ADD4D9B4CEC0B4B5BDBAC3C0CFCAA6D719
:0F0DC500EEBAC3CDA3B3B5B3A100FD000001008A
:100DD400013501012700022C032A022502EE023C00
:100DE40006A4023E032A013000C1050238000002B5
:100DF4003A0000022E000002320000C1010221006C
:010E040001EC
:0C0EEC00E535C454F004FD7F48020EAA56
:060E8E00D2967F057E00F4
:100E9400D3EF9400EE9400400C0000000000EF1F1C
:060EA40070EE1E80EB223F
:0A0EF800D296D297120E90C29722F4
:100E71007D01120E8EC29630970DEDD3946474806D
:0C0E8100948050030D80F0120E90C29679
:010E8D002242
:0A0F0200D296C297120E90D29722E9
:020E0600AD0736
:100E0800C2967F017E00120E94E4FCECC394087431
:100E18008094805013ED25E0FD9297C296120E90B3
:080E2800120E8EC2960C80E34D
:010E3000229F
:100EAA00AB05AD07120EF8AF05120E06120E71AFA2
:0A0EBA0003120E06120E71020F0261
:100E3100E4FDFCE4FBFAC3EB9FEA9E50070BBB0009
:0F0E4100010A80F20DBD00010CED64554C70E408
:010E5000227F
:080F20008F993099FDC299225E
:080F28002000FDD2008F9B2286
:080F30002000FDD2008FAD226C
:080F38002000FDD2008F85228C
:0609BF008B0F8A10891164
:1009C500E4FEF512FDF513AB0FAA10A911AF13053F
:1009D500138F82758300120ADB70ECFEEEFB7A0042
:1009E500C3940574809480502CEB6404700AE52749
:1009F50033333354F8FD8013EB64024A7007E51373
:100A05002403FD8006EE900DCF93FDED6212FF12DB
:100A15000F380E80C7E4FEEEC395135017AB0FAA2F
:100A250010A9118E82758300120ADBFF6212120F64
:100A3500380E80E3AF12120F387F147E00120E318C
:0A0A45002092FD7F147E00020E31A6
:060800008B0A8A0B890C33
:10080600E4FFF50DF50EFEAB0AAA0BA90CAD060E1C
:100816008D82758300120ADB70EDEE2406FDE4334B
:10082600FCD3ED9440EC6480948040030208EFE42E
:10083600FFEFFD7C00C39405748094805036ED6410
:1008460004700BE52733333354F8F50E8014ED644A
:10085600024C7007EE2403F50E8007EF900DCF9340
:10086600F50E74002FF582E43400F583E50EF06290
:100876000D0F80BDE4FFEFC39E5028AB0AAA0BA95B
:100886000C8F82758300120ADBFD74052FF582E456
:100896003400F583EDF08F82758300120ADB620D5A
:1008A6000F80D374052EF582E43400F583E50DF050
:1008B600AF06EF2406F52FE433F52EE4F532F533D3
:1008C600D201200024C3E533952FE532952E501929
:1008D600D2000533E533AE3270020532142400F53A
:0908E6008274003EF583E0F58503
:0108EF0022E6
:0A0F0C00853C3E853D3F7530012213
:0A0F160085253E85263F7530032235
:100EDB00C374FF9FFF74FF9EC28C8F8AF58CD28CDC
:010EEB0022E4
:100E510020B2150539E53970020538C3940AE53821
:100E61009400400BD2058002C205E4F538F5392221
:100C3900AE36AF377C007D64120B0874A82FF5829D
:100C4900740D3EF583E493FD7F68120EAAAE36AFAC
:100C5900377C007D64120B087E007F0ACFCDCFCE92
:100C6900CCCE120B0874A82FF582740D3EF583E4DF
:100C790093FD7F6A120EAAAE36AF377C007D0A1249
:100C89000B0874A82DF582740D3CF583E493FD7F60
:040C99006C020EAA31
:100B5D00E4F593F594F591F592F595F596F5B1F5D6
:100B6D00B2F5B3F5B4F5C9F5CAD2B7D2B65389F01B
:100B7D00438901F58AF58CC28DD28CD2A9538E7F13
:100B8D005389F0F58B758DDCD2ABD28E759850757F
:100B9D009A1075AC10758410438E01538EFB75D76A
:100BAD00E875D6FF438E10C20075AF11D2ACD2AF2F
:0F0BBD00F536F537F530C20285253E85263F22F5
:1008F000120B5D7BFF7A0D7995120800120EEC1237
:100900000C390509E50970020508B4F40CE508B4D2
:100910000107E4F508F509B2CD120E51E530146077
:1009200015146036146065240360030209AB3005BA
:100930007A120F0C8075E53D24FBFFE53C34FFFE89
:10094000C3E52D9FE52C9E4062853C2C853D2D7591
:100950003002753A01753B2C8051200511D3E53BDF
:10096000941EE53A94004006753A00753B1ED3E5A7
:100970003B9400E53A94004008E53B153B700215B6
:100980003AE53B453A7024120F16801FE5262405F0
:10099000FFE43525FED3E52D9FE52C9E500D8525E2
:1009A0002C85262DE4F530C202D207200703020869
:0F09B000FCC2077BFF7A0D79B21208000208FC27
:03000B00020D4B98
:0B0D4B00C0E0C0D075D000C006C0079B
:100D5600E521702AE52224FE600E047021D2A5AF9B
:100D66002DAE2C120EDB8016C2A5C37420952DFF66
:100D7600744E952CFE120EDB75210075220005229D
:060D8600E52270020521C8
:090D8C00D007D006D0D0D0E0322F
:03001B00020BCC09
:0B0BCC00C0E0C0D075D000C006C0071C
:100BD70005230524300224AF23EF3395E0FEEF64AD
:100BE700644E701AF523C3E53794E7E5369403504E
:100BF7000D0537E537700705368003752300C3E514
:100C07002D953FE52C953E50097405252DF52DE4CE
:100C17008013D3E52D953FE52C953E400C74FB25BD
:090C27002DF52D74FF352CF52C80
:090C3000D007D006D0D0D0E0328C
:03004300020C9D0F
:100C9D00C0E0C0D075D000C000C007E59A30E105B6
:100CAD00539AFDC200E59A30E036539AFEAF3405F3
:100CBD003474282FF8A69BAF9BEF64DD7014E528E4
:100CCD0064A57019E52964017013D202F536F53764
:100CDD00800BC3E534940474809480400375340014
:090CED00D007D000D0D0D0E032D5
:03008B00020EC49E
:100EC400C0E0E5AC30E10553ACFDC200E5AC30E078
:070ED4000353ACFED0E03235
:03009300020CF666
:100CF600C0E0C083C082C0D075D000C006E5843095
:100D0600E1305384FD300126C3E533952FE5329556
:100D16002E501B0533E533AE327002053214240023
:100D2600F58274003EF583E0F585D2008004C200AA
:100D3600C201E58430E0035384FED006D0D0D082D1
:050D4600D083D0E03273
:100A5B000208F0E493A3F8E493A34003F68001F2B9
:100A6B0008DFF48029E493A3F85407240CC8C3339C
:100A7B00C4540F4420C8834004F456800146F6DF6B
:100A8B00E4800B0102040810204080900DD4E47E1A
:100A9B00019360BCA3FF543F30E509541FFEE49360
:100AAB00A360010ECF54C025E060A840B8E493A327
:100ABB00FAE493A3F8E493A3C8C582C8CAC583CA52
:100ACB00F0A3C8C582C8CAC583CADFE9DEE780BE0A
:010E050000EC
:100ADB00BB010CE58229F582E5833AF583E02250D0
:100AEB0006E92582F8E622BBFE06E92582F8E2221A
:0D0AFB00E58229F582E5833AF583E4932234
:100B0800BC000BBE0029EF8DF084FFADF022E4CCD1
:100B1800F875F008EF2FFFEE33FEEC33FCEE9DEC9A
:100B2800984005FCEE9DFE0FD5F0E9E4CEFD22EDE0
:100B3800F8F5F0EE8420D21CFEADF075F008EF2F2A
:100B4800FFED33FD4007985006D5F0F222C398FD1B
:050B58000FD5F0EA22B8
:00000001FF
