:03000000020800F3
:0C080000787FE4F6D8FD75813C020847C3
:100A38000A23C0F9A4B0999282F88090012F0C0182
:100A48003003012E0AC102C101C103C10001210006
:030A580001220078
:100A5C00E4FDFCE4FBFAC3EB9FEA9E50070BBB00E2
:0F0A6C00010A80F20DBD00010CED64554C70E4E1
:010A7B002258
:080AB0008F993099FDC29922D3
:10092A00E4F593F594F591F592F595F596F5B1F50B
:10093A00B2F5B3F5B4F5C9F5CA538E7F5389F0F50C
:10094A008A758CDCD2A9D28C759850438E01538E4D
:0E095A00FB75D7E875D6FF438E1043A24022EE
:100A0C00C2CDD2CCE53175F00A84742325F0F8E61A
:100A1C00F5907F037E00120A5CD2CDC2CCE5317515
:0C0A2C00F00A842423F8E6F590020A5C2E
:100A7C00C2CDD2CC75907F7F037E00120A5CD2CDA2
:080A8C00C2CC7590BF020A5CA8
:0B0AA500D203D2B4C2B3D2B2D20022FE
:100A9400C203E4F52D852E31C2B4D2B3D2B2C20062
:010AA400222F
:1009A200E52D1460161460222402702C752D018529
:1009B2003031D2B4C2B3D2B2D20022752D02852F09
:1009C20031D2B4D2B3C2B2C20022E4F52D852E31A7
:0909D200C2B4D2B3D2B2C20022B9
:1008E100E53764DD7042AF33FEEF64A170088534F3
:1008F1002E8535308012EF64A54E7017E53424FE45
:10090100600E04700E85352E85362F120A948003F1
:10091100120AA5E4FFEFC394057480948050097412
:08092100332FF8E4F60F80ED1E
:0109290022AB
:10088C0012092A120A94D2ACD2AF300305120A7C98
:10089C008003120A0C300123C20130030DB2003068
:1008AC000003C38001D392B38011E52D6401700B5A
:1008BC00B200300003C38001D392B33002CCC20229
:1008CC00200307E53170031209A2E53764DD70BA25
:0508DC001208E180B5E7
:03000B000209DB0C
:0409DB00C0E0C0D0E8
:1009DF0005210522E52164647014F521D20220035C
:1009EF000DD3E53194007480948040021531E522D7
:0809FF0064327004F522D201FC
:050A0700D0D0D0E03268
:0300230002096867
:10096800C0E0C0D075D000C000309827C29874335A
:100978002532F8A69974332532F8E664DD7004F55B
:100988003280100532C3E532940A748094804003A3
:0A099800753200D000D0D0D0E0325C
:10080C0002088CE493A3F8E493A34003F68001F26E
:10081C0008DFF48029E493A3F85407240CC8C333ED
:10082C00C4540F4420C8834004F456800146F6DFBC
:10083C00E4800B0102040810204080900A38E47E0A
:10084C00019360BCA3FF543F30E509541FFEE493B1
:10085C00A360010ECF54C025E060A840B8E493A378
:10086C00FAE493A3F8E493A3C8C582C8CAC583CAA3
:10087C00F0A3C8C582C8CAC583CADFE9DEE780BE5B
:010A5B00009A
:00000001FF
